:1000000071C0000086C0000084C0000082C00000F3
:1000100080C000007EC000007CC000007AC00000EC
:1000200078C0000076C0000074C0000072C00000FC
:1000300070C000006EC000006CC000006AC000000C
:1000400068C0000066C0000064C0000062C000001C
:1000500060C000005EC000005CC000005AC000002C
:1000600058C0000056C0000054C0000052C000003C
:1000700050C000004EC000004CC000004AC000004C
:1000800048C0000046C0000044C0000042C000005C
:1000900040C000003EC000003CC000003AC000006C
:1000A00038C0000036C0000034C0000032C000007C
:1000B00030C000002EC000002CC000002AC000008C
:1000C00028C0000026C0000024C0000022C000009C
:1000D00020C000001EC000001CC000001AC00000AC
:1000E00018C0000011241FBECFEFD1E2DEBFCDBF8C
:1000F00000E00CBF12E0A0E0B2E0ECE4FAE000E0C7
:100100000BBF02C007900D92AA31B107D9F7B1D049
:100110009BC476CF88B1806888B989EF90E0019759
:10012000F1F700C0000088B18F7788B989EF90E0BF
:100130000197F1F700C00000089598B19F7D98B92C
:1001400098B19F7B98B98BB9E5CF089588E3F5DF27
:1001500083EC99E00197F1F700C000008FE0EDDF3C
:1001600083EC99E00197F1F700C0000081E0E5DF42
:1001700083EC99E00197F1F700C0000086E0DDDF35
:1001800083EC99E00197F1F700C00000089598B161
:10019000906298B998B19F7B98B98BB9BBCF0895FD
:1001A000CF93DF93EC01662329F081E0C6DF02C024
:1001B0002196EDDF88818111FBCFDF91CF910895EA
:1001C00020E02BC0422F50E0BA016C5F7F4F81E0EE
:1001D00090E002C0880F991F6A95E2F7809582B976
:1001E000009905C0FA01E050FE4F80810895019901
:1001F00005C0FA01EB5FFD4F80810895029905C0AB
:10020000FA01E65FFD4F80810895039905C0FA0168
:10021000E15FFD4F808108952F5F243098F280E0E8
:1002200008954B3249F018F44A3271F01BC04D3238
:1002300039F04F3289F016C09C01260F371F17C0C6
:100240009C01261B370B13C0869F9001879F300DA2
:10025000969F300D11240BC06115710531F0E4D06B
:100260009B0105C020E030E002C020E030E0C90181
:100270000895CF93DF93CDB7DEB760970FB6F894AC
:10028000DEBF0FBECDBF87B1806E87B98FEF8AB951
:1002900080EF81B98FE082B959DFB12C00E0912C59
:1002A000C12CD12CE12CF12C03C0012F01C0012F56
:1002B00087DF182F882309F4B3C0081709F4B0C0EA
:1002C0008FE493EC0197F1F700C0000080ED810FFF
:1002D0008A3008F050C0911024C0C701880F991FC0
:1002E000EE0CFF1CEE0CFF1CEE0CFF1CE80EF91EC2
:1002F000812F90E0C097E80EF91EFF92EF9284E103
:1003000092E09F938F931F9280E18F93CE0101968D
:100310009F938F93B0D00FB6F894DEBF0FBECDBFC2
:1003200023C0C601880F991FCC0CDD1CCC0CDD1C32
:10033000CC0CDD1CC80ED91E812F90E0C097C80ED2
:10034000D91EDF92CF9284E192E09F938F931F9208
:1003500080E18F93CE0101969F938F938CD00FB63F
:10036000F894DEBF0FBECDBF6B2DCE01019618DF16
:10037000012FB12C9DCF1B3231F01D3221F01A32EA
:1003800011F01F32D9F41F921F9387E192E09F93DF
:100390008F931F9282E08F93CE0101964C019F9321
:1003A0008F9369D06B2DC401FBDE0FB6F894DEBFCE
:1003B0000FBECDBF012F912EB12C7ACF1D3311F579
:1003C000492DB601C7012DDF7C01FF928F9384E197
:1003D00092E09F938F931F9280E18F93CE010196BD
:1003E0006C019F938F9347D061E0C601D9DE0FB6B1
:1003F000F894DEBF0FBECDBF012FB12C912CC12CC4
:10040000D12C56CF133409F050CF81E096DE012F66
:10041000BB24B394912CC12CD12CE12CF12C48CFCE
:10042000112309F444CF44CF97FB072E16F4009410
:1004300006D077FD08D00BD007FC05D03EF4909590
:1004400081959F4F0895709561957F4F0895AA1BE0
:10045000BB1B51E107C0AA1FBB1FA617B70710F0AF
:10046000A61BB70B881F991F5A95A9F780959095E1
:10047000BC01CD0108950F931F93CF93DF93CDB7A8
:10048000DEB72E970FB6F894DEBF0FBECDBF0E8934
:100490001F89888D998D26E02C831A83098397FF05
:1004A00002C080E090E801979E838D83AE01445E98
:1004B0005F4F6A8D7B8DCE01019619D04D815E8193
:1004C00057FD0AC02F813885421753070CF49A0153
:1004D000F801E20FF31F10822E960FB6F894DEBFDC
:1004E0000FBECDBFDF91CF911F910F9108952F9235
:1004F0003F924F925F926F927F928F929F92AF92B4
:10050000BF92CF92DF92EF92FF920F931F93CF9300
:10051000DF93CDB7DEB72B970FB6F894DEBF0FBED3
:10052000CDBF6C017B018A01FC0117821682838199
:1005300081FFBFC1CE0101963C01F6019381F70115
:1005400093FD859193FF81917F01882309F4ADC1CB
:10055000853239F493FD859193FF81917F01853236
:1005600021F4B60190E0D6D1E8CF912C212C312C8A
:10057000FFE1F315D8F08B3279F038F4803279F05E
:100580008332A1F4232D20611DC08D3261F08033B0
:1005900069F4232D216016C0832D8260382EE32D4F
:1005A000E4603E2E2AC0F32DF8601DC037FC2DC03C
:1005B00020ED280F2A3040F08E32B9F436FC75C198
:1005C000232D2064322E19C036FE06C08AE0989E84
:1005D000200D1124922E11C0EAE02E9E200D112430
:1005E000222EF32DF0623F2E08C08C3621F4832D8D
:1005F0008068382E02C0883641F4F70193FD85915A
:1006000093FF81917F018111B3CF982F9F7D9554E6
:10061000933028F40C5F1F4F9FE399830DC08336FE
:1006200031F0833771F0833509F055C020C0F801EF
:10063000808189830E5F1F4F88248394912C5301FE
:1006400012C02801F2E04F0E511CF801A080B180C9
:1006500036FE03C0692D70E002C06FEF7FEFC50169
:100660004ED14C018201F32DFF773F2E15C028019A
:1006700022E0420E511CF801A080B18036FE03C07A
:10068000692D70E002C06FEF7FEFC5012DD14C01E5
:10069000F32DF0683F2E820133FC19C0822D90E0CB
:1006A00088169906A0F4B60180E290E033D12A942E
:1006B000F5CFF50137FC859137FE81915F01B601D9
:1006C00090E028D121102A9421E0821A9108811407
:1006D000910479F7E1C0843611F0893639F5F801D3
:1006E00037FE07C060817181828193810C5F1F4F4B
:1006F00008C060817181072E000C880B990B0E5F7A
:100700001F4FF32DFF763F2E97FF09C090958095E0
:10071000709561957F4F8F4F9F4FF0683F2E2AE075
:1007200030E0A30133D1882E861844C0853731F4D8
:10073000232D2F7EB22E2AE030E025C0932D997F05
:10074000B92E8F36C1F018F4883579F0AEC08037F5
:1007500019F0883721F0A9C0E92FE061BE2EB4FE60
:100760000DC0FB2DF460BF2E09C034FE0AC0292F36
:100770002660B22E06C028E030E005C020E130E05F
:1007800002C020E132E0F801B7FE07C0608171814C
:10079000828193810C5F1F4F06C06081718180E070
:1007A00090E00E5F1F4FA301F1D0882E8618FB2D1D
:1007B000FF773F2E36FE0DC0232D2E7FA22E8914EB
:1007C00058F434FE0BC032FC09C0832D8E7EA82E57
:1007D00005C0B82CA32C03C0B82C01C0B92CA4FEB2
:1007E0000FC0FE01E80DF11D8081803321F49A2DA8
:1007F000997EA92E09C0A2FE06C0B394B39404C08A
:100800008A2D867809F0B394A3FC10C0A0FE06C020
:10081000B21480F4280C922C9B180DC0B21458F41A
:10082000B60180E290E076D0B394F8CFB21418F419
:100830002B1802C0982C212CA4FE0FC0B60180E317
:1008400090E068D0A2FE16C0A1FC03C088E790E04B
:1008500002C088E590E0B6010CC08A2D867851F080
:10086000A1FE02C08BE201C080E2A7FC8DE2B601CE
:1008700090E050D0891430F4B60180E390E04AD083
:100880009A94F8CF8A94F301E80DF11D8081B601A6
:1008900090E040D08110F6CF222009F44ECEB60170
:1008A00080E290E037D02A94F7CFF60186819781D5
:1008B00002C08FEF9FEF2B960FB6F894DEBF0FBEEE
:1008C000CDBFDF91CF911F910F91FF90EF90DF90FF
:1008D000CF90BF90AF909F908F907F906F905F90E0
:1008E0004F903F902F900895FC010590615070400B
:1008F0000110D8F7809590958E0F9F1F0895FC01E9
:100900006150704001900110D8F7809590958E0F3E
:100910009F1F08950F931F93CF93DF93FB012381B4
:1009200021FD03C08FEF9FEF2CC022FF16C0468130
:100930005781248135814217530744F4A081B18146
:100940009D012F5F3F4F318320838C932681378118
:100950002F5F3F4F3783268314C08B01EC01FB01CF
:100960000084F185E02D1995892BE1F6D8011696C2
:100970008D919C911797019617969C938E9316973D
:10098000CE01DF91CF911F910F910895FA01AA270F
:10099000283051F1203181F1E8946F936E7F6E5FC2
:1009A0007F4F8F4F9F4FAF4FB1E03ED0B4E03CD070
:1009B000670F781F891F9A1FA11D680F791F8A1F53
:1009C000911DA11D6A0F711D811D911DA11D20D0BA
:1009D00009F468943F912AE0269F11243019305D74
:1009E0003193DEF6CF010895462F4770405D419365
:1009F000B3E00FD0C9F7F6CF462F4F70405D4A33B2
:100A000018F0495D31FD4052419302D0A9F7EACF79
:100A1000B4E0A6959795879577956795BA95C9F7A8
:100A200000976105710508959B01AC010A2E06949B
:100A30005795479537952795BA95C9F7620F731F54
:0C0A4000841F951FA01D0895F894FFCF9F
:100A4C003738392F003435362A003132332D0043F4
:0A0A5C00303D2B00256400256300E7
:00000001FF
